:100000000C942A000C9447000C9447000C94470071
:100010000C9447000C94D8000C9447000C944700B3
:100020000C9402010C9447000C9447000C940F02AE
:100030000C9447000C9447000C9447000C94470024
:100040000C9447000C9447000C9447000C948800D3
:100050000C94470011241FBECFE5D4E0DEBFCDBF16
:1000600010E0A0E6B0E0E4E3FAE002C005900D92F3
:10007000A436B107D9F720E0A4E6B0E001C01D9294
:10008000AD37B207E1F70E94AD010C9418050C944E
:1000900000001092650010926600109267001092A6
:1000A000680084E190E0A0E0B0E08093710090935C
:1000B0007200A0937300B0937400109275001092B8
:1000C00076001092770010927800109269001092DA
:1000D0006A0010926B0010926C00089589B78260DC
:1000E00089BF8AE183BF7894809165009091660012
:1000F000A0916700B0916800892B8A2B8B2BA1F30C
:100100008FE891E00197F1F700C00000F89408959E
:100110001F920F920FB60F9211248F939F93AF935C
:10012000BF938BE08CBF8091710090917200A09181
:100130007300B0917400892B8A2B8B2BD9F484E146
:1001400090E0A0E0B0E08093710090937200A093E3
:100150007300B093740081E083BF81E090E0A0E081
:10016000B0E08093650090936600A0936700B09321
:10017000680015C08BE08CBF809171009091720077
:10018000A0917300B09174000197A109B109809307
:10019000710090937200A0937300B0937400BF91AC
:1001A000AF919F918F910F900FBE0F901F90189558
:1001B0001F920F920FB60F9211248F939F93AF93BC
:1001C000BF9386B597B5A0E0B0E080937900909397
:1001D0007A00A0937B00B0937C0081E090E0A0E0E7
:1001E000B0E08093750090937600A0937700B09371
:1001F0007800BF91AF919F918F910F900FBE0F909C
:100200001F9018951F920F920FB60F9211248F9383
:100210009F93AF93BF9381E090E0A0E0B0E0809324
:10022000690090936A00A0936B00B0936C00BF913B
:10023000AF919F918F910F900FBE0F901F901895C7
:1002400012BE81E083BF08958091790090917A0079
:10025000A0917B00B0917C00BC01CD01660F771F9F
:10026000881F991F660F771F881F991F2EE130E0A6
:1002700040E050E00E941E0220936D0030936E001B
:1002800040936F005093700083E20E94C3018091FD
:100290006D0090916E00A0916F00B09170000E946F
:1002A000E20186E20E94C301089583EC8EBD1DBC6D
:1002B0001CBC84E289BF789480917500909176008F
:1002C000A0917700B0917800892B8A2B8B2B61F459
:1002D0008091690090916A00A0916B00B0916C00D0
:1002E000892B8A2B8B2B41F380917500909176009E
:1002F000A0917700B09178000197A105B10581F434
:100300000E9420010E942401A99A2FEF80E792E029
:10031000215080409040E1F700C00000A998089566
:100320008091690090916A00A0916B00B0916C007F
:100330000197A105B10581F40E94200180E40E948B
:10034000C301AA9A2FEF80E792E0215080409040AD
:10035000E1F700C00000AA9808950E94BB01BB9A73
:100360008E98A19AA29AF8940E9449000E946E0069
:100370000E945501F9CF88E98AB986E080BD10BC9A
:1003800083E389B908955D9BFECF8CB908950F93DF
:100390001F93CF93DF93FC0101900020E9F7319781
:1003A0001E2F181B51F0082FC02FD92F89910E94A2
:1003B000C3018C2F801B8117C8F3DF91CF911F9150
:1003C0000F9108950F931F93CF93DF93CDB7DEB7AF
:1003D0002A970FB6F894DEBF0FBECDBF9F938F93C1
:1003E00080E690E09F938F938E010F5F1F4F1F93C6
:1003F0000F930E944002C8010E94C7010F900F9006
:100400000F900F900F900F902A960FB6F894DEBFC2
:100410000FBECDBFDF91CF911F910F9108951F9215
:100420000F920FB60F9211248F938CB180936400BA
:100430008F910F900FBE0F901F901895A1E21A2E6A
:10044000AA1BBB1BFD010DC0AA1FBB1FEE1FFF1F78
:10045000A217B307E407F50720F0A21BB30BE40BC8
:10046000F50B661F771F881F991F1A9469F760950F
:100470007095809590959B01AC01BD01CF010895C9
:10048000AEE0B0E0E6E4F2E00C94EF040D891E89E2
:1004900086E08C831A8309838FEF9FE79E838D8389
:1004A000AE01475E5F4F6F89788DCE0101960E9445
:1004B00063022F813885F801E20FF31F10822E9618
:1004C000E4E00C940B05ACE0B0E0E9E6F2E00C945B
:1004D000E1047C016B018A01FC0117821682838191
:1004E00081FFBDC1CE0101964C01F7019381F60158
:1004F00093FD859193FF81916F01882309F4ABC12E
:10050000853239F493FD859193FF81916F01853296
:1005100029F4B70190E00E944B04E7CF512C312C15
:1005200020E02032A0F48B3269F030F4803259F0B0
:10053000833269F420612CC08D3239F0803339F474
:10054000216026C02260246023C0286021C027FDCE
:1005500027C030ED380F3A3078F426FF06C0FAE0B5
:100560005F9E300D1124532E13C08AE0389E300D4B
:100570001124332E20620CC08E3221F426FD6BC173
:10058000206406C08C3611F4206802C0883641F41D
:10059000F60193FD859193FF81916F018111C1CF88
:1005A000982F9F7D9554933028F40C5F1F4FFFE3E5
:1005B000F9830DC0833631F0833771F0833509F04C
:1005C0005BC022C0F801808189830E5F1F4F4424E5
:1005D0004394512C540115C03801F2E06F0E711C88
:1005E000F801A080B18026FF03C0652D70E002C035
:1005F0006FEF7FEFC5012C870E9440042C0183011F
:100600002C852F77222E17C03801F2E06F0E711C57
:10061000F801A080B18026FF03C0652D70E002C004
:100620006FEF7FEFC5012C870E9435042C012C85CC
:100630002068222E830123FC1BC0832D90E04816E6
:100640005906B0F4B70180E290E00E944B043A945E
:10065000F4CFF50127FC859127FE81915F01B70159
:1006600090E00E944B0431103A94F1E04F1A510887
:100670004114510471F7E5C0843611F0893639F51B
:10068000F80127FF07C060817181828193810C5F2F
:100690001F4F08C060817181072E000C880B990BD9
:1006A0000E5F1F4F2F76722E97FF09C09095809591
:1006B000709561957F4F8F4F9F4F2068722E2AE073
:1006C00030E0A4010E948304A82EA81844C08537F6
:1006D00029F42F7EB22E2AE030E025C0F22FF97FD8
:1006E000BF2E8F36C1F018F4883579F0B4C080374A
:1006F00019F0883721F0AFC02F2F2061B22EB4FE41
:100700000DC08B2D8460B82E09C024FF0AC09F2F16
:100710009660B92E06C028E030E005C020E130E048
:1007200002C020E132E0F801B7FE07C060817181AC
:10073000828193810C5F1F4F06C06081718180E0D0
:1007400090E00E5F1F4FA4010E948304A82EA818FA
:10075000FB2DFF777F2E76FE0BC0372D3E7FA51435
:1007600050F474FE0AC072FC08C0372D3E7E05C0EE
:10077000BA2C372D03C0BA2C01C0B52C34FF0DC0E4
:10078000FE01EA0DF11D8081803311F4397E09C02C
:1007900032FF06C0B394B39404C0832F867809F067
:1007A000B39433FD13C030FF06C05A2CB31418F4B1
:1007B000530C5B18B32CB31468F4B70180E290E0DB
:1007C0003C870E944B04B3943C85F5CFB31410F4DE
:1007D0003B1801C0312C34FF12C0B70180E390E018
:1007E0003C870E944B043C8532FF17C031FD03C09B
:1007F00088E790E002C088E590E0B7010CC0832F45
:10080000867859F031FF02C08BE201C080E237FDEB
:100810008DE2B70190E00E944B04A51438F4B701B3
:1008200080E390E00E944B045A94F7CFAA94F4011D
:10083000EA0DF11D8081B70190E00E944B04A110E8
:10084000F5CF332009F451CEB70180E290E00E9449
:100850004B043A94F6CFF7018681978102C08FEF5F
:100860009FEF2C96E2E10C94FD04FC010590615091
:1008700070400110D8F7809590958E0F9F1F0895B6
:10088000FC016150704001900110D8F7809590955F
:100890008E0F9F1F08950F931F93CF93DF93FB013C
:1008A000238121FD03C08FEF9FEF28C022FF16C0D8
:1008B00046815781248135814217530744F4A08132
:1008C000B1819D012F5F3F4F318320838C9326811F
:1008D00037812F5F3F4F3783268310C0EB01092FED
:1008E000182F0084F185E02D0995892BE1F68E8182
:1008F0009F8101969F838E83812F902FDF91CF91CF
:100900001F910F910895FA01AA27283051F1203143
:1009100081F1E8946F936E7F6E5F7F4F8F4F9F4F93
:10092000AF4FB1E03ED0B4E03CD0670F781F891FD5
:100930009A1FA11D680F791F8A1F911DA11D6A0FA3
:10094000711D811D911DA11D20D009F468943F9156
:100950002AE0269F11243019305D3193DEF6CF0155
:100960000895462F4770405D4193B3E00FD0C9F71B
:10097000F6CF462F4F70405D4A3318F0495D31FD88
:100980004052419302D0A9F7EACFB4E0A6959795DB
:10099000879577956795BA95C9F7009761057105B1
:1009A00008959B01AC010A2E0694579547953795FB
:1009B0002795BA95C9F7620F731F841F951FA01D55
:1009C00008952F923F924F925F926F927F928F92F3
:1009D0009F92AF92BF92CF92DF92EF92FF920F93CE
:1009E0001F93CF93DF93CDB7DEB7CA1BDB0B0FB6D8
:1009F000F894DEBF0FBECDBF09942A883988488895
:100A00005F846E847D848C849B84AA84B984C8842A
:100A1000DF80EE80FD800C811B81AA81B981CE0F21
:100A2000D11D0FB6F894DEBF0FBECDBFED01089506
:040A3000F894FFCF68
:040A34002564000035
:00000001FF
